:100000001A50113D018E0000108E00001086FF0076
:100010001138128EFFF0108EFFF01086001011388C
:10002000127EE00000000000000000000000000060
:1000300000000000000000000000000000000000C0
:1000400000000000000000000000000000000000B0
:1000500000000000000000000000000000000000A0
:100060000000000000000000000000000000000090
:10E00000B7FF088E0100108E000010860100113B42
:10E0100012CEFB00FFF44C10CEFC0010FFF44EBDFE
:10E02000E18FBDE9A8BDE1598EEC2EBDE416860056
:10E03000BDE3DD862EBDE1BCCC0007BDE45EBDE4E2
:10E0400016CCE000BDE0FFBDE393BDE416CC04A711
:10E05000BDE0FFBDE393BDE4167FF43E7FF4407F57
:10E06000F441BDE552C6468EF33DBDE30524F3BD44
:10E07000E50834017DF4412604350120E53501BD74
:10E08000EB237FF44120DB3401BDE14B81392E04C9
:10E09000803020028037840F35813401BDE087480D
:10E0A00048484884F01E89BDE0871035985F358167
:10E0B0003401BDE09A1E06BDE09A1F891FE8105F7B
:10E0C00035813401840F81092E048B3020028B3777
:10E0D0003581340110381F8E44444444BDE0C234BD
:10E0E000021FE8BDE0C21F893502103935813406B0
:10E0F000BDE0D21F0635061F98BDE0D21E0639349A
:10E10000017FF4551F06104F118E271011F7F4569A
:10E110001F06104F118E03E81E06104810481048C5
:10E120001048F7F4571F60118D643402B6F457108D
:10E130003598B7F45735044F118D0A585858581070
:10E140003598B7F45810FCF4553581340181612DB0
:10E1500006817A2E02802035813406861BBDE1BC03
:10E16000865BBDE1BC8632BDE1BC864ABDE1BC86B2
:10E170001BBDE1BC865BBDE1BC8631BDE1BC863B1D
:10E18000BDE1BC8631BDE1BC8648BDE1BC3586340D
:10E19000028600B7FF698610B7FF6B860BB7FF6A70
:10E1A0003582B6FF69840827F9B6FF68391CFEB6C8
:10E1B000FF6984082705B6FF681A01393402B6FFE3
:10E1C00069841027F93502B7FF6839103810868046
:10E1D00000105A270220FA10393934068608BDE1AA
:10E1E000BC8620BDE1BC8608BDE1BC5A26F0358660
:10E1F0003404103834105F115FA680270781202770
:10E20000035C20F53510C1002732C1012607BDE2AD
:10E210005F24292023C1022615BDE25F241E484841
:10E2200048481F89BDE25F2413103598200AB6F4D0
:10E230003D8B03B7F43D20041A0120021CFE103967
:10E2400035843404BDE25F2412484848481F89BD24
:10E25000E25F24071035981A0120021CFE3584A6BF
:10E26000842713BDE14B81302D0C81462E08813966
:10E270002F0881412C041CFE2005BDE0871A0130C7
:10E28000017CF43D39103834105F105FA6802707F9
:10E29000812027035C20F53510C1002752C10126DB
:10E2A00009BDE25F24491F8F203FC1022609BDE25C
:10E2B00042243C1F8F2032C1032610BDE25F242F71
:10E2C0001F8EBDE24224281F8F201EC1042610BDD0
:10E2D000E242241B1F8EBDE24224141F8F200AB687
:10E2E000F43D8B05B7F43D20061F601A0120021C87
:10E2F000FE1039393405BDE1A21F89BDE1A21E8996
:10E30000BDE09A3585343210381F121F9F114FBD62
:10E31000E1A2810D27488108270B811B271E2BEFC7
:10E3200010379E263010371227E5301F114A7AF435
:10E330003D3404C601BDE1DA350420D31181002744
:10E34000CE34041FE9BDE1DA35041F21114F9609CF
:10E35000B7F43D20BABDE1BCA780114C20B1BDE3AC
:10E36000F06F841FE911810027041A0120021CFEAE
:10E37000103935B234011038BDE1A21F8FBDE1A2C2
:10E380001F89BDE1A21F8EBDE1A21E8FBDE0B010AE
:10E390003935813420108E0000BDE3B11F98BDE3F4
:10E3A000B11FE8BDE3B11FF8108E0001BDE3B13528
:10E3B000A03402444444444D2703BDE3FE350284A7
:10E3C0000F108C000026034D2703BDE3FE393407F0
:10E3D000BDE0D2BDE1BC1F98BDE1BC35873407BDAF
:10E3E000E0D281302703BDE1BC1F98BDE1BC358779
:10E3F0003403860DBDE1BC860ABDE1BC3583340320
:10E40000BDE0C2BDE1BC3583340344444444BDE0B7
:10E41000C2BDE1BC35833403A680270981FF2705EF
:10E4200017FD9920F3358334075FA68081FF270FFE
:10E4300081302604810027F21F89BDE1BC20EB3525
:10E440008734071038BDE0EEBDE1BC1F98BDE1BCCC
:10E450001FE8BDE1BC1FF8BDE1BC1039358734169B
:10E4600010388E0000BDE0EE813027053001BDE19F
:10E47000BC1F98813026058C000027053001BDE1C6
:10E48000BC1FE8813026058C000027053001BDE166
:10E49000BC1FF8BDE1BC103935963407F6F43DCB0E
:10E4A000098620BDE1BC5A26F8865EBDE1BCBDE30D
:10E4B000F035873411BDE49A8EF043BDE4163591F2
:10E4C0003411BDE49A8EF056BDE41635913411BD79
:10E4D000E49A8EF099BDE41635913411BDE49A8E1C
:10E4E000F066BDE41635913411BDE49A8EF07BBD23
:10E4F000E41635913411BDE49A8EF0ACBDE41635C6
:10E50000918EED9DBDE41639BDEBB2BFF453A684E8
:10E51000273F108EED2CA680BDE14BE6A02B1C10F2
:10E52000378926057CF43D20EDBEF4537FF43DE6AB
:10E53000A02AFC3122E6A4271520DB8120270481B4
:10E5400000260B7AF43DECA4EDC3301F6ED1BDE480
:10E55000CD393406B6F440BDE3CE863ABDE1BCFC0D
:10E56000F43EBDE441863EBDE1BC8620BDE1BC7FFA
:10E57000F43D35868EF00ABDE416B6FFA03402B62F
:10E58000FF903402B6FF913402BDE96FBDE99210ED
:10E590008E1FFF860036021186408631BDE5D38688
:10E5A0004036021186808632BDE5D3868036021160
:10E5B00086C08633BDE5D386C03602118600863418
:10E5C000BDE5D33502B7FF913502B7FF903502B7ED
:10E5D000FFA039115F8EF018BDE416BDE1BC863A8C
:10E5E000BDE1BC8620BDE1BC3702B7FFA0BDE8821B
:10E5F0002428BDE3CEBDE6214C810726014CC6028E
:10E60000BDE1DA10378E26E2115D27078EF035BDA9
:10E61000E416398EF02EBDE416398EF03CBDE416BA
:10E62000398E0000BDE62F300110371226F639343E
:10E6300002A6843402C655BDE645C6AABDE64535E8
:10E6400002A7843582E784A684103789270311C680
:10E650000139BDEBB2A6842708BDE2852454FDF440
:10E660003EBEF43E1F121186101F10BDE441863AD3
:10E67000BDE1BC8620BDE1BCC610A680BDE3CE8650
:10E6800020BDE1BC5A26F3867CBDE1BC8620BDE1FD
:10E69000BCC610A6A081202D054D2B022002862E7F
:10E6A000BDE1BC5A26EDBDE3F0114A26BCBFF43EE5
:10E6B0002003BDE4B339C602BDE1AD811B270FB60F
:10E6C000FF0944BDE3CEBDE1CBBDE1DA20EA39105C
:10E6D0005F8EF0BCBDE416BDE1A2811B26098EF061
:10E6E000F7BDE4161600B5813A26EC114FBDE2F4F1
:10E6F0001F894F1F021F9EBDE374BFF4531F0110FB
:10E70000308E10309E115D2B09BFF43EBFF45011C6
:10E71000C680BDE2F410308E810027138101273EB0
:10E720008EF112BDE416BDE3CEBDE3F016006DBD63
:10E73000E2F4A78010308E313F108C000026F011DB
:10E7400043114CBDE2F410378E2608862EBDE1BC85
:10E7500016FF8411C6818678BDE1BC16FF7911438E
:10E76000114CBDE2F410378E270811C6818658BDC2
:10E77000E1BC11C180270BBDE3F08EF128BDE4168A
:10E78000201ABEF453CC36FFED81CC103AED8186D1
:10E7900039A784BDE3F08EF150BDE416398EF166E1
:10E7A000BDE416CCDFFFBDE441BDE416104CBDE472
:10E7B00041862DBDE1BC8624BDE1BCCCF33DBDE46A
:10E7C00041BDE41639BDE96F863FC602B7FFA0BD63
:10E7D000E3CE8EFFA0108E000010862000113B12A9
:10E7E000BDE1DA810027084A810726E04A20DD39A9
:10E7F000B6FF9034028A40B7FF90B6FF913402848E
:10E80000FEB7FF91B6FFA03402108601C08640B764
:10E81000FFA0BDE8822420108B02008680B7FFA0F5
:10E82000BDE8822412108B020086C0B7FFA0BDE8AD
:10E83000822404108B0200103810388EF24CBDE494
:10E8400016CCE000BDE0FFBDE393BDE4163506BD88
:10E85000E0FFBDE393BDE4164FC638BDE0FFBDE366
:10E8600093BDE4163506C30040BDE0FFBDE393BD94
:10E87000E4163502B7FFA03502B7FF913502B7FFA6
:10E880009039340696001F89865597009600815569
:10E89000260E86AA9700960081AA26041A01200255
:10E8A0001CFED7003586BDEBB2BFF453A6842745C6
:10E8B0007CF43D11B6F43D108EF31BA680BDE14BF8
:10E8C000E6A02B1D10378926057CF43D20EDBEF413
:10E8D0005311B7F43DE6A02AFC3122E6A42712200A
:10E8E000DA8120270481002608ECA4EDC3301F6ED6
:10E8F000D1BDE4DA398EF2BDBDE416B6FF90844096
:10E900002611864FBDE1BC8646BDE1BC8646BDE111
:10E91000BC200A864FBDE1BC864EBDE1BCBDE416FD
:10E92000B6FF91840126078630BDE1BC2005863103
:10E93000BDE1BCBDE416108EFFA0C608A6A4BDE3D1
:10E94000CE862DBDE1BC31215A26F15CBDE1DABD98
:10E95000E416108EFFA8C608A6A4BDE3CE862DBD82
:10E96000E1BC31215A26F15CBDE1DABDE3F039B6F4
:10E97000FF908A40B7FF9039B6FF9084BFB7FF90F1
:10E9800039BDEBB2A684271C813027068131270BC5
:10E990002012B6FF9184FEB7FF9139B6FF918A012C
:10E9A000B7FF9139BDE4DA39BDE978BDE9928EFC53
:10E9B00000108EFFA04FA780A7A04C810F26F786DE
:10E9C00007A784A7A439BDEBB2A6842708BDE285BA
:10E9D000241AFDF43EFCF43EBDE441863DBDE1BC9D
:10E9E000A69FF43EBDE3CEBDE3F02003BDE4B33902
:10E9F000BDEBB2A6842735BDE285242BFDF43EBDD8
:10EA0000EBB2BDE1F0241BA79FF43EFCF43EBDE455
:10EA100041863DBDE1BCA69FF43EBDE3CEBDE3F023
:10EA2000200DBDE4C02008BDE4B32003BDE4E739F8
:10EA30008641BDE1BC863ABDE1BCB6F444BDE3CE3F
:10EA40008620BDE1BC8642BDE1BC863ABDE1BCB6D4
:10EA5000F445BDE3CE8620BDE1BC8645BDE1BC8664
:10EA60003ABDE1BCB6F446BDE3CE8620BDE1BC862E
:10EA700046BDE1BC863ABDE1BCB6F447BDE3CE86F7
:10EA800020BDE1BC8658BDE1BC863ABDE1BCFCF4CA
:10EA900048BDE4418620BDE1BC8659BDE1BC863A53
:10EAA000BDE1BCFCF44ABDE4418620BDE1BC865515
:10EAB000BDE1BC863ABDE1BCFCF44CBDE44186201E
:10EAC000BDE1BC8653BDE1BC863ABDE1BCFCF44E61
:10EAD000BDE4418620BDE1BC8643BDE1BCBDE1BCD7
:10EAE000863ABDE1BCB6F442BDE3CE8620BDE1BCB2
:10EAF0008644BDE1BC8650BDE1BC863ABDE1BCB6F2
:10EB0000F443BDE3CE8620BDE1BC8650BDE1BC86AA
:10EB100043BDE1BC863ABDE1BCFCF450BDE441BD5F
:10EB2000E3F039103B377F3401B7F4443502B7F4D2
:10EB300042F7F44511B7F44611F7F447BFF4481013
:10EB4000BFF44A10FFF44E3706830002FDF450FF75
:10EB5000F44C39B6F4423402B6F444F6F44511B636
:10EB6000F44611F6F447BEF44810BEF44AFEF44CE5
:10EB70003581BDEBB2A6842708BDE2852413FDF4E0
:10EB80003EA69FF43E270D7CF441BDEB536E9FF4EF
:10EB90003EBDE4B339BDEBB2A684270FBDE28524A8
:10EBA00005FDF43E200BBDE4B32006CC0000FDF4CF
:10EBB0003E393402A684270B8120260730017CF4DD
:10EBC0003D20F135827EE011BDEBB2A684272EBD3B
:10EBD000E285242DFDF43E1F02114FBDEBB2A68449
:10EBE000271BBDE1F0241EA7A0114CBDEBB2A684EB
:10EBF0002717BDE1F0240EA7A0114C20EEBDE4E7DD
:10EC000039BDE4B339BDE4C039FCF43E1F02BDE4B4
:10EC100041863ABDE1BCA6A0BDE3CE114A270786D6
:10EC20002CBDE1BC20F010BFF43EBDE3F0392D2D2A
:10EC30002D2D2D2D2D2D2D2D2D2D2D2D2D2D2D2D04
:10EC40002D2D2D2D2D2D2D2D2D2D2D2D2D2D2D2DF4
:10EC50002D2D2D2D2D2D0D0A4D6963726F486F627C
:10EC60006279697374277320526574726F20486FDC
:10EC70006D656272657720436F6D70757465727330
:10EC80000D0A4C6F676963537061726B2D30392CBC
:10EC9000206120363330392070726F6A6563742CBE
:10ECA0002072657620000D0A44657369676E65649D
:10ECB00020627920467265646572696320536567D6
:10ECC00061726420202832303234290D0A0A002073
:10ECD00062797465732066726565200D0A00206292
:10ECE00079746573206F6620756E616C6C6F6361FB
:10ECF00074656420736861646F772052414D0D0A1A
:10ED00002D2D2D2D2D2D2D2D2D2D2D2D2D2D2D2D33
:10ED10002D2D2D2D2D2D2D2D2D2D2D2D2D2D2D2D23
:10ED20002D2D2D2D2D2D2D2D0D0A0A00414444523F
:10ED3000FFEB95434C53FFE15944494147FFE574CC
:10ED400044554D50FFE65248454C50FFE501494EB1
:10ED500054FFE6B64C4F4144FFE6CF4D4150FFE72C
:10ED60009D4D454DFFE7F04D4D55FFE8A6504545FB
:10ED70004BFFE9C6504F4B45FFE9F0524547FFEACC
:10ED80003052554EFFEB72544147FFE7C557415291
:10ED90004DFFEBC55752495445FFEBC8004C697312
:10EDA00074206F662076616C696420636F6D6D619D
:10EDB0006E64733A0D0A202020414444523A205395
:10EDC00065742063757272656E7420616464726527
:10EDD00073730D0A202020434C533A20436C656125
:10EDE000722073637265656E0D0A202020444941CC
:10EDF000473A20446961676E6F73746963730D0AE3
:10EE000020202044554D503A20446973706C61793C
:10EE1000206D656D6F727920636F6E74656E740D11
:10EE20000A20202048454C503A20546869732068D5
:10EE3000656C702073637265656E0D0A2020204931
:10EE40004E543A2054657374207072696F726974FD
:10EE50007920696E7465727275707420656E636F67
:10EE60006465720D0A2020204C4F41443A204C6FBB
:10EE7000616420496E74656C204865782066726F05
:10EE80006D20636F6E736F6C650D0A2020204D41FD
:10EE9000503A204D656D6F727920616E6420492F64
:10EEA0004F206D6170206F662073797374656D0DEE
:10EEB0000A2020204D454D3A20417661696C6162FF
:10EEC0006C65206D656D6F7279206F6E207379733C
:10EED00074656D0D0A2020204D4D553A204D656D0D
:10EEE0006F7279204D616E6167656D656E74205536
:10EEF0006E697420436F6D6D616E647320616E6422
:10EF0000205374617475730D0A2020205045454BC1
:10EF10003A205265616420612062797465206F66D1
:10EF2000206D656D6F72790D0A202020504F4B4582
:10EF30003A2057726974652061206279746520698E
:10EF40006E746F206D656D6F72790D0A20202052EE
:10EF500045473A205072696E742074686520726566
:10EF60006769737465727320636F6E74656E740D78
:10EF70000A20202052554E3A204578656375746505
:10EF800020636F64650D0A2020205441473A2054C5
:10EF9000616773206D656D6F727920746F20626C8C
:10EFA0006F636B206E756D62657273202865786380
:10EFB00065707420233037290D0A202020574152D4
:10EFC0004D3A205761726D20626F6F7473207468C0
:10EFD0006520636F6D70757465720D0A202020576F
:10EFE000524954453A2057726974652064617461CE
:10EFF0002073657175656E7469616C6C7920746FCE
:10F00000206D656D6F72790D0A00446961676E6FDE
:10F0100073746963730D0A00202054657374696EFC
:10F0200067203531324B20636869702023005061BE
:10F0300073730D0A004661696C0D0A00536B6970A9
:10F040000D0A00496E76616C6964206164647265C2
:10F050007373210D0A00496E76616C6964206279D0
:10F060007465210D0A00496E76616C6964207061D7
:10F0700072616D65746572210D0A004E6F207061BA
:10F0800072616D657465722077617320737065635A
:10F0900069666965642E0D0A00496E76616C696463
:10F0A00020636F6D6D616E64210D0A0053796E747B
:10F0B0006178206572726F72210D0A004C6F616475
:10F0C000203633303920636F646520696E20496EC5
:10F0D00074656C2048657820666F726D61740D0AE6
:10F0E00050726573732045534320746F2063616EC3
:10F0F00063656C2E0D0A005472616E736665722032
:10F1000061626F7274656420627920757365720D37
:10F110000A00556E6B6E6F776E207265636F726456
:10F1200020747970653A2000446F776E6C6F61646B
:10F13000206661696C65642064756520746F206366
:10F140006865636B73756D206572726F720D0A006E
:10F15000446F776E6C6F616420537563636573737E
:10F1600066756C0D0A004D656D6F7279204D61708A
:10F170003A0D0A20202052414D3A20202020202004
:10F180002024303030302D24000D0A202020524F12
:10F190004D3A2020202020202024000D0A2020206D
:10F1A000436F6E73742E2052414D3A2024464530F1
:10F1B000302D24464546460D0A202020492F4F2059
:10F1C00072616E67653A202024464630302D244611
:10F1D0004645460D0A202020566563746F72733AC7
:10F1E0002020202024464646302D24464646460D03
:10F1F0000A492F4F204D61703A0D0A202020496E98
:10F20000742E20566563742E3A20244646303920E9
:10F210002852290D0A202020414349412023313A18
:10F220002020202024464636382D464636420D0AF8
:10F23000202020414349412023323A20202020240D
:10F24000464636432D464636460D0A004D656D6FDF
:10F2500072792053697A653A0D0A20202042617341
:10F26000652052414D3A202020202036344B422048
:10F2700028002062797465732066726565290D0A1D
:10F28000202020457874656E6465642052414D3AB3
:10F2900020004B4220280020626C6F636B73206655
:10F2A000726565290D0A202020546F74616C20520C
:10F2B000414D3A20202020004B420D0A004D4D5573
:10F2C000205374617475733A0D0A2020204D4D55FA
:10F2D00020284F4E2F4F4646293A20000D0A202065
:10F2E000205461736B2028302F31293A20000D0AF9
:10F2F0005461736B207265676973746572733A0D3C
:10F300000A2020205461736B20303A20000D0A201F
:10F3100020205461736B20313A20004F4EFFE96F7B
:10F320004F4646FFE9785441534BFFE9815245531C
:0DF330004554FFE9A8003B3B3B3B3B3B3B0A
:07F5590041414141414141E4
:10F56000414141414141414141414141414141418B
:10F57000414141414141414141414141414141417B
:10F58000414141414141414141414141414141416B
:10F59000414141414141414141414141414141415B
:10FD0000E159E1DAE1F0E25FE285E2F4E1A2E1AD9E
:10FD1000E305E374E1BCE3CEE3F0E3FEE416E44183
:10FD2000E087E09AE0B0E0C2E0D2E0EEE0FFE14B35
:10FD3000E3934A4A4A4A4A4A4A4A4A4A4A4A4A4A41
:10FD40004A4A4A4A4A4A4A4A4A4A4A4A4A4A4A4A13
:10FD50004A4A4A4A4A4A4A4A4A4A4A4A4A4A4A4A03
:10FD60004A4A4A4A4A4A4A4A4A4A4A4A4A4A4A4AF3
:10FD70004A4A4A4A4A4A4A4A4A4A4A4A4A4A4A4AE3
:10FD80004A4A4A4A4A4A4A4A4A4A4A4A4A4A4A4AD3
:10FD90004A4A4A4A4A4A4A4A4A4A4A4A4A4A4A4AC3
:10FDA0004A4A4A4A4A4A4A4A4A4A4A4A4A4A4A4AB3
:10FDB0004A4A4A4A4A4A4A4A4A4A4A4A4A4A4A4AA3
:10FDC0004A4A4A4A4A4A4A4A4A4A4A4A4A4A4A4A93
:10FDD0004A4A4A4A4A4A4A4A4A4A4A4A4A4A4A4A83
:10FDE0004A4A4A4A4A4A4A4A4A4A4A4A4A4A4A4A73
:10FDF0004A4A4A4A4A4A4A4A4A4A4A4A4A4A4A4A63
:10FFF000F336F337F338F339F33AF33BF33C0000CD
:00000001FF