:100000001A50113D018E0000108E00001086FF0076
:100010001138128EFFF0108EFFF01086001011388C
:10002000127EE00000000000000000000000000060
:1000300000000000000000000000000000000000C0
:1000400000000000000000000000000000000000B0
:1000500000000000000000000000000000000000A0
:100060000000000000000000000000000000000090
:10E00000B7FF088E0100108E000010860100113B42
:10E0100012CEFA00FFEF5E10CEFC0010FFEF60BDE5
:10E02000E197BDE1618EE940BDE4048600BDE3CB2C
:10E03000862EBDE1C4CC0004BDE44CBDE404CCE0BC
:10E0400000BDE107BDE38CBDE404CC0D95BDE10747
:10E05000BDE38CBDE404104F105F8E0000108E00F5
:10E0600000FDEF507FEF527FEF53BDE545C6468E72
:10E07000EE4FBDE2FE24F3BDE4F634017DEF5326FE
:10E0800004350120E53501BDE87E7FEF5320DB3408
:10E0900001BDE15381392E04803020028037840F86
:10E0A00035813401BDE08F4848484884F01E89BD61
:10E0B000E08F1035985F35813401BDE0A21E06BDAA
:10E0C000E0A21F891FE8105F35813401840F8109A8
:10E0D0002E048B3020028B373581340110381F8E8F
:10E0E00044444444BDE0CA34021FE8BDE0CA1F896D
:10E0F0003502103935813406BDE0DA1F0635061FBA
:10E1000098BDE0DA1E063934017FEF671F06104F15
:10E11000118E271011F7EF681F06104F118E03E8BC
:10E120001E061048104810481048F7EF691F60118C
:10E130008D643402B6EF69103598B7EF6935044F36
:10E14000118D0A58585858103598B7EF6A10FCEFDF
:10E15000673581340181612D06817A2E0280203558
:10E16000813406861BBDE1C4865BBDE1C48632BD39
:10E17000E1C4864ABDE1C4861BBDE1C4865BBDE146
:10E18000C48631BDE1C4863BBDE1C48631BDE1C476
:10E190008648BDE1C4358634028600B7FF69861023
:10E1A000B7FF6B860BB7FF6A3582B6FF6984082715
:10E1B000F9B6FF68391CFEB6FF6984082705B6FF6B
:10E1C000681A01393402B6FF69841027F93502B79D
:10E1D000FF683934068608BDE1C48620BDE1C486E7
:10E1E00008BDE1C45A26F035863404103834105F77
:10E1F000115FA6802707812027035C20F53510C119
:10E20000002732C1012607BDE25824292023C1027C
:10E210002615BDE258241E484848481F89BDE258CB
:10E220002413103598200AB6EF4F8B03B7EF4F2019
:10E23000041A0120021CFE103935843404BDE25852
:10E240002412484848481F89BDE2582407103598D1
:10E250001A0120021CFE3584A6842713BDE15381D8
:10E26000302D0C81462E0881392F0881412C041C49
:10E27000FE2005BDE08F1A0130017CEF4F391038C8
:10E2800034105F105FA6802707812027035C20F5EC
:10E290003510C1002752C1012609BDE25824491F8B
:10E2A0008F203FC1022609BDE23B243C1F8F203254
:10E2B000C1032610BDE258242F1F8EBDE23B242847
:10E2C0001F8F201EC1042610BDE23B241B1F8EBDE4
:10E2D000E23B24141F8F200AB6EF4F8B05B7EF4F98
:10E2E00020061F601A0120021CFE1039393405BDBA
:10E2F000E1AA1F89BDE1AA1E89BDE0A2358534329D
:10E3000010381F121F9F114FBDE1AA810D274881B0
:10E3100008270B811B271E2BEF10379E2630103746
:10E320001227E5301F114A7AEF4F3404C601BDE1D0
:10E33000D3350420D311810027CE34041FE9BDE179
:10E34000D335041F21114F9609B7EF4F20BABDE115
:10E35000C4A780114C20B1BDE3DE6F841FE9118199
:10E360000027041A0120021CFE103935B2340110B6
:10E3700038BDE1AA1F8FBDE1AA1F89BDE1AA1F8E8A
:10E38000BDE1AA1E8FBDE0B8103935815FBDE3A2A3
:10E390001F98BDE3A21FE8BDE3A21FF8C601BDE3BD
:10E3A000A2393402444444444D2703BDE3EC350212
:10E3B000840F5D26034D2703BDE3EC393407BDE030
:10E3C000DABDE1C41F98BDE1C435873407BDE0DA8A
:10E3D00081302703BDE1C41F98BDE1C435873403F4
:10E3E000860DBDE1C4860ABDE1C435833403BDE0BA
:10E3F000CABDE1C43583340344444444BDE0CABDCE
:10E40000E1C435833403A680270981FF270517FD62
:10E41000B320F3358334075FA68081FF270F813057
:10E420002604810027F21F89BDE1C420EB35873423
:10E43000071038BDE0F6BDE1C41F98BDE1C41FE878
:10E44000BDE1C41FF8BDE1C410393587341610385A
:10E450008E0000BDE0F6813027053001BDE1C41F0C
:10E4600098813026058C000027053001BDE1C41FCE
:10E47000E8813026058C000027053001BDE1C41F6E
:10E48000F8BDE1C4103935963407F6EF4FCB098655
:10E4900020BDE1C45A26F8865EBDE1C4BDE3DE3589
:10E4A000873411BDE4888EEC3EBDE404359134110F
:10E4B000BDE4888EEC51BDE40435913411BDE4888F
:10E4C0008EEC94BDE40435913411BDE4888EEC618A
:10E4D000BDE40435913411BDE4888EEC76BDE404CE
:10E4E00035913411BDE4888EECA7BDE40435918EDE
:10E4F000EA89BDE404393427BDE92DBFEF65A68460
:10E500002741108EEA3EA680BDE153E6A02B1C10E9
:10E51000378926057CEF4F20EDBEEF657FEF4FE694
:10E52000A02AFC3122E6A4271720DB8120270481C2
:10E5300000260D7AEF4FECA4EDC3301F35276ED1C6
:10E54000BDE4BB35A73406B6EF52BDE3BC863ABD89
:10E55000E1C4FCEF50BDE42F863EBDE1C48620BD82
:10E56000E1C47FEF4F35868EEC03BDE4048EEC11E1
:10E57000BDE4048E0000108EE000115FBDE5A43004
:10E580000110371226F6105D27138EEC2DBDE40422
:10E590001F60BDE107BDE38CBDE40420068EEC26C0
:10E5A000BDE40439A6843402C600BDE5C1C655BD2C
:10E5B000E5C1C6AABDE5C1C6FFBDE5C13502A78458
:10E5C00039E784A6841037892702105C39BDE92D0C
:10E5D000A6842708BDE27E2454FDEF50BEEF501FF5
:10E5E000121186141F10BDE42F863ABDE1C48620A7
:10E5F000BDE1C4C610A680BDE3BC8620BDE1C45AFF
:10E6000026F3867CBDE1C48620BDE1C4C610A6A069
:10E6100081202D054D2B022002862EBDE1C45A26F5
:10E62000EDBDE3DE114A26BCBFEF502003BDE4A1DF
:10E630003934371038105F8EECB7BDE404BDE1AA61
:10E64000811B26098EECF2BDE4041600B5813A2642
:10E65000EC114FBDE2ED1F894F1F021F9EBDE36D00
:10E66000BFEF651F0110308E10309E115D2B09BF6A
:10E67000EF50BFEF6211C680BDE2ED10308E810019
:10E6800027138101273E8EED0DBDE404BDE3BCBD23
:10E69000E3DE16006DBDE2EDA78010308E313F1035
:10E6A0008C000026F01143114CBDE2ED10378E2690
:10E6B00008862EBDE1C416FF8411C6818678BDE1AF
:10E6C000C416FF791143114CBDE2ED10378E2708B7
:10E6D00011C6818658BDE1C411C180270BBDE3DEA0
:10E6E0008EED23BDE404201ABEEF65CC36FFED812C
:10E6F000CC103AED818639A784BDE3DE8EED4BBDAB
:10E70000E404103935B734068EED61BDE404CCDF86
:10E71000FFBDE42FBDE404104CBDE42FBDE404357F
:10E7200086BDE92DA6842708BDE27E241AFDEF50A0
:10E73000FCEF50BDE42F863DBDE1C4A69FEF50BD68
:10E74000E3BCBDE3DE2003BDE4A139BDE92DA68411
:10E750002735BDE27E242BFDEF50BDE92DBDE1E95B
:10E76000241BA79FEF50FCEF50BDE42F863DBDE179
:10E77000C4A69FEF50BDE3BCBDE3DE200DBDE4AEFB
:10E780002008BDE4A12003BDE4D5398641BDE1C424
:10E79000863ABDE1C4B6EF56BDE3BC8620BDE1C4F8
:10E7A0008642BDE1C4863ABDE1C4B6EF57BDE3BCC5
:10E7B0008620BDE1C48645BDE1C4863ABDE1C4B64C
:10E7C000EF58BDE3BC8620BDE1C48646BDE1C486EA
:10E7D0003ABDE1C4B6EF59BDE3BC8620BDE1C486B5
:10E7E00058BDE1C4863ABDE1C4FCEF5ABDE42F86B2
:10E7F00020BDE1C48659BDE1C4863ABDE1C4FCEF49
:10E800005CBDE42F8620BDE1C48655BDE1C4863AD7
:10E81000BDE1C4FCEF5EBDE42F8620BDE1C486539C
:10E82000BDE1C4863ABDE1C4FCEF60BDE42F8620A3
:10E83000BDE1C48643BDE1C4BDE1C4863ABDE1C4C7
:10E84000B6EF54BDE3BC8620BDE1C48644BDE1C43F
:10E850008650BDE1C4863ABDE1C4B6EF55BDE3BC08
:10E860008620BDE1C48650BDE1C48643BDE1C486B7
:10E870003ABDE1C4FCEF62BDE42FBDE3DE39103BDD
:10E88000377F3401B7EF563502B7EF54F7EF571122
:10E89000B7EF5811F7EF59BFEF5A10BFEF5C10FFF9
:10E8A000EF603706830002FDEF62FFEF5E39B6EFDF
:10E8B000543402B6EF56F6EF5711B6EF5811F6EF93
:10E8C00059BEEF5A10BEEF5CFEEF5E3581BDE92DFB
:10E8D000A6842708BDE27E2413FDEF50A69FEF50CB
:10E8E000270D7CEF53BDE8AE6E9FEF50BDE4A1391C
:10E8F0003407BDE92DA684270FBDE27E2405FDEF78
:10E9000050200BBDE4A12006CC0000FDEF50358760
:10E910003403BDE92DA684270FBDE1E92405B7EF37
:10E92000522008BDE4AE20037FEF5235833403A6A6
:10E9300084270B8120260730017CEF4F20F135839F
:10E940002D2D2D2D2D2D2D2D2D2D2D2D2D2D2D2DF7
:10E950002D2D2D2D2D2D2D2D2D2D2D2D2D2D2D2DE7
:10E960002D2D2D2D2D2D2D2D0D0A4D6963726F48E6
:10E970006F626279697374277320526574726F20B5
:10E98000486F6D656272657720436F6D7075746551
:10E9900072730D0A4C6F676963537061726B2D302F
:10E9A000392C206120363330392070726F6A6563EC
:10E9B000742C2072657620000D0A44657369676EB9
:10E9C00065642062792046726564657269632053CC
:10E9D000656761726420202832303234290D0A0ABA
:10E9E000002062797465732066726565200D0A00E7
:10E9F000206279746573206F6620756E616C6C6F30
:10EA0000636174656420736861646F772052414D5F
:10EA10000D0A2D2D2D2D2D2D2D2D2D2D2D2D2D2D69
:10EA20002D2D2D2D2D2D2D2D2D2D2D2D2D2D2D2D16
:10EA30002D2D2D2D2D2D2D2D2D2D0D0A0A0041446E
:10EA40004452FFE8F042414E4BFFE9104449414730
:10EA5000FFE56744554D50FFE5CD48454C50FFE478
:10EA6000EF4C4F4144FFE6314D4150FFE706504522
:10EA7000454BFFE721504F4B45FFE74B524547FFC2
:10EA8000E78B52554EFFE8CD004C697374206F66DA
:10EA90002076616C696420636F6D6D616E64733A9A
:10EAA0000D0A20202D20414444523A205365742001
:10EAB00063757272656E7420616464726573730D40
:10EAC0000A20202D2042414E4B3A2053657420638A
:10EAD000757272656E742062616E6B0D0A20202D56
:10EAE00020444941473A20446961676E6F737469F5
:10EAF00063730D0A20202D2044554D503A2044695F
:10EB000073706C6179206D656D6F727920636F6EC3
:10EB100074656E740D0A20202D2048454C503A2013
:10EB2000546869732068656C702073637265656EE4
:10EB30000D0A20202D204C4F41443A204C6F616437
:10EB400020496E74656C204865782066726F6D2070
:10EB5000636F6E736F6C650D0A20202D204D415040
:10EB60003A204D656D6F727920616E6420492F4F98
:10EB7000206D6170206F662073797374656D0D0A66
:10EB800020202D205045454B3A205265616420617C
:10EB90002062797465206F66206D656D6F72790DE6
:10EBA0000A20202D20504F4B453A2057726974653A
:10EBB0002061206279746520696E746F206D656DC7
:10EBC0006F72790D0A20202D205245473A2050724D
:10EBD000696E742074686520726567697374657204
:10EBE0007320636F6E74656E740D0A20202D2052A1
:10EBF000554E3A204578656375746520636F64658A
:10EC00000D0A00446961676E6F73746963730D0A5E
:10EC100000202054657374696E672042617365201B
:10EC200052414D3A2000506173730D0A00466169EC
:10EC30006C2C2000206572726F72730D0A00496E91
:10EC400076616C69642061646472657373210D0A76
:10EC500000496E76616C69642062797465210D0AE1
:10EC600000496E76616C696420706172616D6574D3
:10EC70006572210D0A004E6F20706172616D6574BE
:10EC80006572207761732073706563696669656476
:10EC90002E0D0A00496E76616C696420636F6D6D9C
:10ECA000616E64210D0A0053796E7461782065727B
:10ECB000726F72210D0A004C6F6164203633303957
:10ECC00020636F646520696E20496E74656C20480E
:10ECD000657820666F726D61740D0A50726573738A
:10ECE0002045534320746F2063616E63656C2E0D65
:10ECF0000A005472616E736665722061626F72748D
:10ED0000656420627920757365720D0A00556E6B1B
:10ED10006E6F776E207265636F72642074797065B0
:10ED20003A2000446F776E6C6F6164206661696C95
:10ED300065642064756520746F20636865636B7318
:10ED4000756D206572726F720D0A00446F776E6C7C
:10ED50006F6164205375636365737366756C0D0A28
:10ED6000004D656D6F7279204D61703A0D0A20205B
:10ED700052414D3A202020202020202430303030B5
:10ED80002D24000D0A2020524F4D3A202020202013
:10ED9000202024002D24464446460D0A2020436F9F
:10EDA0006E73742052414D3A2024464530302D2454
:10EDB000464546460D0A2020492F4F2072616E6756
:10EDC000653A2024464630302D24464645460D0AF5
:10EDD0002020566563746F72733A202020244646C3
:10EDE00046302D24464646460D0A492F4F204D6198
:10EDF000703A0D0A2020524F4D20446973736162AE
:10EE00006C653A202446463038202857290D0A20C0
:10EE100020496E742E20566563746F723A20202448
:10EE200046463039202852290D0A202041434941C5
:10EE3000312028555342293A202024464636382D81
:0FEE400024464636420D0A003B3B3B3B3B3B3BE7
:05EF6B00535353535302
:10EF70005353535353535353535353535353535361
:10EF80005353535353535353535353535353535351
:10EF90005353535353535353535353535353535341
:10EFA0005353535353535353535353535353535331
:10FD0000E161E1D3E1E9E258E27EE2EDE1AAE1B5A9
:10FD1000E2FEE36DE1C4E3BCE3DEE3ECE404E42FE4
:10FD2000E08FE0A2E0B8E0CAE0DAE0F6E107E153F4
:10FD3000E38C4A4A4A4A4A4A4A4A4A4A4A4A4A4A48
:10FD40004A4A4A4A4A4A4A4A4A4A4A4A4A4A4A4A13
:10FD50004A4A4A4A4A4A4A4A4A4A4A4A4A4A4A4A03
:10FD60004A4A4A4A4A4A4A4A4A4A4A4A4A4A4A4AF3
:10FD70004A4A4A4A4A4A4A4A4A4A4A4A4A4A4A4AE3
:10FD80004A4A4A4A4A4A4A4A4A4A4A4A4A4A4A4AD3
:10FD90004A4A4A4A4A4A4A4A4A4A4A4A4A4A4A4AC3
:10FDA0004A4A4A4A4A4A4A4A4A4A4A4A4A4A4A4AB3
:10FDB0004A4A4A4A4A4A4A4A4A4A4A4A4A4A4A4AA3
:10FDC0004A4A4A4A4A4A4A4A4A4A4A4A4A4A4A4A93
:10FDD0004A4A4A4A4A4A4A4A4A4A4A4A4A4A4A4A83
:10FDE0004A4A4A4A4A4A4A4A4A4A4A4A4A4A4A4A73
:10FDF0004A4A4A4A4A4A4A4A4A4A4A4A4A4A4A4A63
:10FFF000EE48EE49EE4AEE4BEE4CEE4DEE4E000072
:00000001FF