:1010000012BD10077E10AF8E1074AD9FFD1C8E10A8
:1010100082AD9FFD1C8E2000108EE000115FBD1080
:101020004B300110371226F6105D26178E109EAD3C
:101030009FFD1C1F60AD9FFD2CAD9FFD30AD9FFD42
:101040001C20078E1097AD9FFD1C39A6843402C664
:1010500000BD1068C655BD1068C6AABD1068C6FFA1
:10106000BD10683502A78439E784A6841037892724
:1010700002105C39446961676E6F73746963730D44
:101080000A00202054657374696E6720426173659D
:101090002052414D3A2000506173730D0A004661A1
:0F10A000696C2C2000206572726F72730D0A004C
:00000001FF